{
  "_format": "hh-sol-artifact-1",
  "contractName": "Grab",
  "sourceName": "contracts/Grab.sol",
  "abi": [
    {
      "inputs": [
        {
          "internalType": "address",
          "name": "nftContractAddress",
          "type": "address"
        },
        {
          "internalType": "address",
          "name": "to",
          "type": "address"
        },
        {
          "internalType": "uint256",
          "name": "tokenId",
          "type": "uint256"
        }
      ],
      "name": "getNFT",
      "outputs": [],
      "stateMutability": "payable",
      "type": "function"
    }
  ],
  "bytecode": "0x608060405234801561001057600080fd5b50610221806100206000396000f3fe60806040526004361061001e5760003560e01c806347eae78614610023575b600080fd5b61003d600480360381019061003891906100dd565b61003f565b005b8273ffffffffffffffffffffffffffffffffffffffff166342842e0e3384846040518463ffffffff1660e01b815260040161007c9392919061014a565b600060405180830381600087803b15801561009657600080fd5b505af11580156100aa573d6000803e3d6000fd5b50505050505050565b6000813590506100c2816101bd565b92915050565b6000813590506100d7816101d4565b92915050565b6000806000606084860312156100f257600080fd5b6000610100868287016100b3565b9350506020610111868287016100b3565b9250506040610122868287016100c8565b9150509250925092565b61013581610181565b82525050565b610144816101b3565b82525050565b600060608201905061015f600083018661012c565b61016c602083018561012c565b610179604083018461013b565b949350505050565b600061018c82610193565b9050919050565b600073ffffffffffffffffffffffffffffffffffffffff82169050919050565b6000819050919050565b6101c681610181565b81146101d157600080fd5b50565b6101dd816101b3565b81146101e857600080fd5b5056fea26469706673582212203a2765db3fafc27f62bcd920b40a8d2dd7747903182e9e52cbfb4b40d7e121c664736f6c63430008010033",
  "linkReferences": {},
  "deployedLinkReferences": {}
}